{
  "address": "0xe7f1725E7734CE288F8367e1Bb143E90bb3F0512",
  "abi": [
    {
      "inputs": [
        {
          "internalType": "address",
          "name": "priceFeedAddress",
          "type": "address"
        }
      ],
      "stateMutability": "nonpayable",
      "type": "constructor"
    },
    {
      "inputs": [],
      "name": "NotOwner",
      "type": "error"
    },
    {
      "stateMutability": "payable",
      "type": "fallback"
    },
    {
      "inputs": [],
      "name": "MINIMUM_USD",
      "outputs": [
        {
          "internalType": "uint256",
          "name": "",
          "type": "uint256"
        }
      ],
      "stateMutability": "view",
      "type": "function"
    },
    {
      "inputs": [
        {
          "internalType": "address",
          "name": "",
          "type": "address"
        }
      ],
      "name": "addressToAmountFunded",
      "outputs": [
        {
          "internalType": "uint256",
          "name": "",
          "type": "uint256"
        }
      ],
      "stateMutability": "view",
      "type": "function"
    },
    {
      "inputs": [],
      "name": "fund",
      "outputs": [],
      "stateMutability": "payable",
      "type": "function"
    },
    {
      "inputs": [
        {
          "internalType": "uint256",
          "name": "",
          "type": "uint256"
        }
      ],
      "name": "funders",
      "outputs": [
        {
          "internalType": "address",
          "name": "",
          "type": "address"
        }
      ],
      "stateMutability": "view",
      "type": "function"
    },
    {
      "inputs": [],
      "name": "iOwner",
      "outputs": [
        {
          "internalType": "address",
          "name": "",
          "type": "address"
        }
      ],
      "stateMutability": "view",
      "type": "function"
    },
    {
      "inputs": [],
      "name": "priceFeed",
      "outputs": [
        {
          "internalType": "contract AggregatorV3Interface",
          "name": "",
          "type": "address"
        }
      ],
      "stateMutability": "view",
      "type": "function"
    },
    {
      "inputs": [],
      "name": "withdraw",
      "outputs": [],
      "stateMutability": "payable",
      "type": "function"
    },
    {
      "stateMutability": "payable",
      "type": "receive"
    }
  ],
  "transactionHash": "0x15a7eb558562c17af68296e738bab02eb8de952c08c7d31dfe99f5b0244c766a",
  "args": [
    "0x5FbDB2315678afecb367f032d93F642f64180aa3"
  ],
  "numDeployments": 1,
  "solcInputHash": "c41dc654cdc7af811862c80b5ec2a038",
  "bytecode": "0x60a060405234801561001057600080fd5b50604051610fbd380380610fbd833981810160405281019061003291906100c5565b3373ffffffffffffffffffffffffffffffffffffffff1660808173ffffffffffffffffffffffffffffffffffffffff1660601b8152505080600260006101000a81548173ffffffffffffffffffffffffffffffffffffffff021916908373ffffffffffffffffffffffffffffffffffffffff16021790555050610140565b6000815190506100bf81610129565b92915050565b6000602082840312156100db576100da610124565b5b60006100e9848285016100b0565b91505092915050565b60006100fd82610104565b9050919050565b600073ffffffffffffffffffffffffffffffffffffffff82169050919050565b600080fd5b610132816100f2565b811461013d57600080fd5b50565b60805160601c610e58610165600039600081816102d801526105630152610e586000f3fe6080604052600436106100745760003560e01c8063741bef1a1161004e578063741bef1a146100ff57806377c9dd4b1461012a578063b60d428814610155578063dc0d3dff1461015f57610083565b80633ccfd60b1461008d5780633e47d6f3146100975780636b69a592146100d457610083565b366100835761008161019c565b005b61008b61019c565b005b6100956102d6565b005b3480156100a357600080fd5b506100be60048036038101906100b991906107b0565b610516565b6040516100cb91906109a6565b60405180910390f35b3480156100e057600080fd5b506100e961052e565b6040516100f691906109a6565b60405180910390f35b34801561010b57600080fd5b5061011461053b565b604051610121919061094b565b60405180910390f35b34801561013657600080fd5b5061013f610561565b60405161014c9190610930565b60405180910390f35b61015d61019c565b005b34801561016b57600080fd5b50610186600480360381019061018191906107dd565b610585565b6040516101939190610930565b60405180910390f35b6802b5e3af16b18800006101db600260009054906101000a900473ffffffffffffffffffffffffffffffffffffffff16346105c490919063ffffffff16565b101561021c576040517f08c379a000000000000000000000000000000000000000000000000000000000815260040161021390610986565b60405180910390fd5b346000803373ffffffffffffffffffffffffffffffffffffffff1673ffffffffffffffffffffffffffffffffffffffff168152602001908152602001600020600082825461026a91906109dd565b925050819055506001339080600181540180825580915050600190039060005260206000200160009091909190916101000a81548173ffffffffffffffffffffffffffffffffffffffff021916908373ffffffffffffffffffffffffffffffffffffffff160217905550565b7f000000000000000000000000000000000000000000000000000000000000000073ffffffffffffffffffffffffffffffffffffffff163373ffffffffffffffffffffffffffffffffffffffff161461035b576040517f30cd747100000000000000000000000000000000000000000000000000000000815260040160405180910390fd5b60005b6001805490508110156104065760006001828154811061038157610380610d0e565b5b9060005260206000200160009054906101000a900473ffffffffffffffffffffffffffffffffffffffff16905060008060008373ffffffffffffffffffffffffffffffffffffffff1673ffffffffffffffffffffffffffffffffffffffff168152602001908152602001600020819055505080806103fe90610c67565b91505061035e565b50600067ffffffffffffffff81111561042257610421610d3d565b5b6040519080825280602002602001820160405280156104505781602001602082028036833780820191505090505b50600190805190602001906104669291906106a0565b5060003373ffffffffffffffffffffffffffffffffffffffff164760405161048d9061091b565b60006040518083038185875af1925050503d80600081146104ca576040519150601f19603f3d011682016040523d82523d6000602084013e6104cf565b606091505b5050905080610513576040517f08c379a000000000000000000000000000000000000000000000000000000000815260040161050a90610966565b60405180910390fd5b50565b60006020528060005260406000206000915090505481565b6802b5e3af16b188000081565b600260009054906101000a900473ffffffffffffffffffffffffffffffffffffffff1681565b7f000000000000000000000000000000000000000000000000000000000000000081565b6001818154811061059557600080fd5b906000526020600020016000915054906101000a900473ffffffffffffffffffffffffffffffffffffffff1681565b6000806105d083610600565b90506000670de0b6b3a764000085836105e99190610b7b565b6105f39190610a33565b9050809250505092915050565b6000808273ffffffffffffffffffffffffffffffffffffffff1663feaf968c6040518163ffffffff1660e01b815260040160a06040518083038186803b15801561064957600080fd5b505afa15801561065d573d6000803e3d6000fd5b505050506040513d601f19601f82011682018060405250810190610681919061080a565b5050509150506402540be400816106989190610a64565b915050919050565b828054828255906000526020600020908101928215610719579160200282015b828111156107185782518260006101000a81548173ffffffffffffffffffffffffffffffffffffffff021916908373ffffffffffffffffffffffffffffffffffffffff160217905550916020019190600101906106c0565b5b509050610726919061072a565b5090565b5b8082111561074357600081600090555060010161072b565b5090565b60008135905061075681610dc6565b92915050565b60008151905061076b81610ddd565b92915050565b60008135905061078081610df4565b92915050565b60008151905061079581610df4565b92915050565b6000815190506107aa81610e0b565b92915050565b6000602082840312156107c6576107c5610d6c565b5b60006107d484828501610747565b91505092915050565b6000602082840312156107f3576107f2610d6c565b5b600061080184828501610771565b91505092915050565b600080600080600060a0868803121561082657610825610d6c565b5b60006108348882890161079b565b95505060206108458882890161075c565b945050604061085688828901610786565b935050606061086788828901610786565b92505060806108788882890161079b565b9150509295509295909350565b61088e81610bd5565b82525050565b61089d81610c31565b82525050565b60006108b0600b836109cc565b91506108bb82610d71565b602082019050919050565b60006108d3601b836109cc565b91506108de82610d9a565b602082019050919050565b60006108f66000836109c1565b915061090182610dc3565b600082019050919050565b61091581610c11565b82525050565b6000610926826108e9565b9150819050919050565b60006020820190506109456000830184610885565b92915050565b60006020820190506109606000830184610894565b92915050565b6000602082019050818103600083015261097f816108a3565b9050919050565b6000602082019050818103600083015261099f816108c6565b9050919050565b60006020820190506109bb600083018461090c565b92915050565b600081905092915050565b600082825260208201905092915050565b60006109e882610c11565b91506109f383610c11565b9250827fffffffffffffffffffffffffffffffffffffffffffffffffffffffffffffffff03821115610a2857610a27610cb0565b5b828201905092915050565b6000610a3e82610c11565b9150610a4983610c11565b925082610a5957610a58610cdf565b5b828204905092915050565b6000610a6f82610be7565b9150610a7a83610be7565b9250827f7fffffffffffffffffffffffffffffffffffffffffffffffffffffffffffffff0482116000841360008413161615610ab957610ab8610cb0565b5b817f80000000000000000000000000000000000000000000000000000000000000000583126000841260008413161615610af657610af5610cb0565b5b827f80000000000000000000000000000000000000000000000000000000000000000582126000841360008412161615610b3357610b32610cb0565b5b827f7fffffffffffffffffffffffffffffffffffffffffffffffffffffffffffffff0582126000841260008412161615610b7057610b6f610cb0565b5b828202905092915050565b6000610b8682610c11565b9150610b9183610c11565b9250817fffffffffffffffffffffffffffffffffffffffffffffffffffffffffffffffff0483118215151615610bca57610bc9610cb0565b5b828202905092915050565b6000610be082610bf1565b9050919050565b6000819050919050565b600073ffffffffffffffffffffffffffffffffffffffff82169050919050565b6000819050919050565b600069ffffffffffffffffffff82169050919050565b6000610c3c82610c43565b9050919050565b6000610c4e82610c55565b9050919050565b6000610c6082610bf1565b9050919050565b6000610c7282610c11565b91507fffffffffffffffffffffffffffffffffffffffffffffffffffffffffffffffff821415610ca557610ca4610cb0565b5b600182019050919050565b7f4e487b7100000000000000000000000000000000000000000000000000000000600052601160045260246000fd5b7f4e487b7100000000000000000000000000000000000000000000000000000000600052601260045260246000fd5b7f4e487b7100000000000000000000000000000000000000000000000000000000600052603260045260246000fd5b7f4e487b7100000000000000000000000000000000000000000000000000000000600052604160045260246000fd5b600080fd5b7f43616c6c206661696c6564000000000000000000000000000000000000000000600082015250565b7f596f75206e65656420746f207370656e64206d6f726520455448210000000000600082015250565b50565b610dcf81610bd5565b8114610dda57600080fd5b50565b610de681610be7565b8114610df157600080fd5b50565b610dfd81610c11565b8114610e0857600080fd5b50565b610e1481610c1b565b8114610e1f57600080fd5b5056fea2646970667358221220a3b860cd28dfb8494339dabfd75ac84156d5d034203127f068a2bee0c8b445cd64736f6c63430008070033",
  "devdoc": {
    "kind": "dev",
    "methods": {},
    "version": 1
  },
  "userdoc": {
    "kind": "user",
    "methods": {},
    "version": 1
  },
  "storageLayout": {
    "storage": [
      {
        "astId": 58,
        "contract": "contracts/FundMe.sol:FundMe",
        "label": "addressToAmountFunded",
        "offset": 0,
        "slot": "0",
        "type": "t_mapping(t_address,t_uint256)"
      },
      {
        "astId": 61,
        "contract": "contracts/FundMe.sol:FundMe",
        "label": "funders",
        "offset": 0,
        "slot": "1",
        "type": "t_array(t_address)dyn_storage"
      },
      {
        "astId": 73,
        "contract": "contracts/FundMe.sol:FundMe",
        "label": "priceFeed",
        "offset": 0,
        "slot": "2",
        "type": "t_contract(AggregatorV3Interface)45"
      }
    ],
    "types": {
      "t_address": {
        "encoding": "inplace",
        "label": "address",
        "numberOfBytes": "20"
      },
      "t_array(t_address)dyn_storage": {
        "base": "t_address",
        "encoding": "dynamic_array",
        "label": "address[]",
        "numberOfBytes": "32"
      },
      "t_contract(AggregatorV3Interface)45": {
        "encoding": "inplace",
        "label": "contract AggregatorV3Interface",
        "numberOfBytes": "20"
      },
      "t_mapping(t_address,t_uint256)": {
        "encoding": "mapping",
        "key": "t_address",
        "label": "mapping(address => uint256)",
        "numberOfBytes": "32",
        "value": "t_uint256"
      },
      "t_uint256": {
        "encoding": "inplace",
        "label": "uint256",
        "numberOfBytes": "32"
      }
    }
  }
}