{
    "address": "0x9fE46736679d2D9a65F0992F2272dE9f3c7fa6e0",
    "abi": [
        {
            "inputs": [],
            "stateMutability": "nonpayable",
            "type": "constructor"
        },
        {
            "inputs": [],
            "name": "doStuff",
            "outputs": [],
            "stateMutability": "view",
            "type": "function"
        }
    ],
    "transactionHash": "0x8d26cc4b00bd79f99e7aae61ba532b407c89a3d778cad4f043c7226859fb0403",
    "args": [],
    "numDeployments": 1,
    "solcInputHash": "b5af3f3f0a3e294d6f5dd4ee60fa1517",
    "bytecode": "0x60a060405234801561001057600080fd5b50601960008190555060018060006101000a81548160ff021916908315150217905550600260de90806001815401808255809150506001900390600052602060002001600090919091909150556002808060018154018082558091505060019003906000526020600020016000909190919091505560016003600080815260200190815260200160002060006101000a81548160ff021916908315150217905550607b6080818152505060805161011c6100d26000396000505061011c6000f3fe6080604052348015600f57600080fd5b506004361060285760003560e01c8063874f33a114602d575b600080fd5b60336035565b005b6000600160005460449190605e565b90506000600160009054906101000a900460ff1690505050565b600060678260ad565b915060708360ad565b9250827fffffffffffffffffffffffffffffffffffffffffffffffffffffffffffffffff0382111560a25760a160b7565b5b828201905092915050565b6000819050919050565b7f4e487b7100000000000000000000000000000000000000000000000000000000600052601160045260246000fdfea264697066735822122036413ff70aa5865f67001e547fcfda67d1ac7615f1132671a298f761ca9f70c064736f6c63430008070033",
    "devdoc": {
        "kind": "dev",
        "methods": {},
        "version": 1
    },
    "userdoc": {
        "kind": "user",
        "methods": {},
        "version": 1
    },
    "storageLayout": {
        "storage": [
            {
                "astId": 49,
                "contract": "contracts/FunWithStorage.sol:FunWithStorage",
                "label": "favoriteNumber",
                "offset": 0,
                "slot": "0",
                "type": "t_uint256"
            },
            {
                "astId": 51,
                "contract": "contracts/FunWithStorage.sol:FunWithStorage",
                "label": "someBool",
                "offset": 0,
                "slot": "1",
                "type": "t_bool"
            },
            {
                "astId": 54,
                "contract": "contracts/FunWithStorage.sol:FunWithStorage",
                "label": "myArray",
                "offset": 0,
                "slot": "2",
                "type": "t_array(t_uint256)dyn_storage"
            },
            {
                "astId": 58,
                "contract": "contracts/FunWithStorage.sol:FunWithStorage",
                "label": "myMap",
                "offset": 0,
                "slot": "3",
                "type": "t_mapping(t_uint256,t_bool)"
            }
        ],
        "types": {
            "t_array(t_uint256)dyn_storage": {
                "base": "t_uint256",
                "encoding": "dynamic_array",
                "label": "uint256[]",
                "numberOfBytes": "32"
            },
            "t_bool": {
                "encoding": "inplace",
                "label": "bool",
                "numberOfBytes": "1"
            },
            "t_mapping(t_uint256,t_bool)": {
                "encoding": "mapping",
                "key": "t_uint256",
                "label": "mapping(uint256 => bool)",
                "numberOfBytes": "32",
                "value": "t_bool"
            },
            "t_uint256": {
                "encoding": "inplace",
                "label": "uint256",
                "numberOfBytes": "32"
            }
        }
    }
}